{
  "contractName": "Lottery",
  "abi": [
    {
      "inputs": [],
      "stateMutability": "nonpayable",
      "type": "constructor"
    },
    {
      "inputs": [],
      "name": "lastWinner",
      "outputs": [
        {
          "internalType": "address",
          "name": "",
          "type": "address"
        }
      ],
      "stateMutability": "view",
      "type": "function",
      "constant": true
    },
    {
      "inputs": [],
      "name": "manager",
      "outputs": [
        {
          "internalType": "address",
          "name": "",
          "type": "address"
        }
      ],
      "stateMutability": "view",
      "type": "function",
      "constant": true
    },
    {
      "inputs": [],
      "name": "noOfPlayers",
      "outputs": [
        {
          "internalType": "uint256",
          "name": "",
          "type": "uint256"
        }
      ],
      "stateMutability": "view",
      "type": "function",
      "constant": true
    },
    {
      "inputs": [
        {
          "internalType": "uint256",
          "name": "",
          "type": "uint256"
        }
      ],
      "name": "players",
      "outputs": [
        {
          "internalType": "address payable",
          "name": "",
          "type": "address"
        }
      ],
      "stateMutability": "view",
      "type": "function",
      "constant": true
    },
    {
      "inputs": [
        {
          "internalType": "address",
          "name": "",
          "type": "address"
        }
      ],
      "name": "uniquePlayers",
      "outputs": [
        {
          "internalType": "uint256",
          "name": "",
          "type": "uint256"
        }
      ],
      "stateMutability": "view",
      "type": "function",
      "constant": true
    },
    {
      "inputs": [],
      "name": "enter",
      "outputs": [],
      "stateMutability": "payable",
      "type": "function",
      "payable": true
    },
    {
      "inputs": [],
      "name": "pickWinner",
      "outputs": [],
      "stateMutability": "nonpayable",
      "type": "function"
    },
    {
      "inputs": [],
      "name": "getPlayers",
      "outputs": [
        {
          "internalType": "address payable[]",
          "name": "",
          "type": "address[]"
        }
      ],
      "stateMutability": "view",
      "type": "function",
      "constant": true
    },
    {
      "inputs": [],
      "name": "getBalance",
      "outputs": [
        {
          "internalType": "uint256",
          "name": "",
          "type": "uint256"
        }
      ],
      "stateMutability": "view",
      "type": "function",
      "constant": true
    }
  ],
  "bytecode": "0x608060405234801561001057600080fd5b50336000806101000a81548173ffffffffffffffffffffffffffffffffffffffff021916908373ffffffffffffffffffffffffffffffffffffffff160217905550610f86806100606000396000f3fe6080604052600436106100865760003560e01c80638b5b9ccc116100595780638b5b9ccc14610135578063d4980c4114610160578063e97dcb621461018b578063f71d96cb14610195578063fe188184146101d257610086565b806312065fe01461008b57806335601688146100b6578063481c6a75146100f35780635d495aea1461011e575b600080fd5b34801561009757600080fd5b506100a06101fd565b6040516100ad9190610ca5565b60405180910390f35b3480156100c257600080fd5b506100dd60048036038101906100d8919061094d565b610205565b6040516100ea9190610ca5565b60405180910390f35b3480156100ff57600080fd5b5061010861021d565b6040516101159190610bed565b60405180910390f35b34801561012a57600080fd5b50610133610241565b005b34801561014157600080fd5b5061014a6105e8565b6040516101579190610c23565b60405180910390f35b34801561016c57600080fd5b50610175610676565b6040516101829190610ca5565b60405180910390f35b61019361067c565b005b3480156101a157600080fd5b506101bc60048036038101906101b79190610976565b6107e1565b6040516101c99190610c08565b60405180910390f35b3480156101de57600080fd5b506101e7610820565b6040516101f49190610bed565b60405180910390f35b600047905090565b60026020528060005260406000206000915090505481565b60008054906101000a900473ffffffffffffffffffffffffffffffffffffffff1681565b60008054906101000a900473ffffffffffffffffffffffffffffffffffffffff1673ffffffffffffffffffffffffffffffffffffffff163373ffffffffffffffffffffffffffffffffffffffff16146102cf576040517f08c379a00000000000000000000000000000000000000000000000000000000081526004016102c690610c85565b60405180910390fd5b60036001805490501015610318576040517f08c379a000000000000000000000000000000000000000000000000000000000815260040161030f90610c45565b60405180910390fd5b6000600180549050610328610846565b6103329190610e73565b90506001818154811061036e577f4e487b7100000000000000000000000000000000000000000000000000000000600052603260045260246000fd5b9060005260206000200160009054906101000a900473ffffffffffffffffffffffffffffffffffffffff16600460006101000a81548173ffffffffffffffffffffffffffffffffffffffff021916908373ffffffffffffffffffffffffffffffffffffffff16021790555060018181548110610413577f4e487b7100000000000000000000000000000000000000000000000000000000600052603260045260246000fd5b9060005260206000200160009054906101000a900473ffffffffffffffffffffffffffffffffffffffff1673ffffffffffffffffffffffffffffffffffffffff166108fc479081150290604051600060405180830381858888f19350505050158015610483573d6000803e3d6000fd5b50600060038190555060005b60018054905081101561055e576000600182815481106104d8577f4e487b7100000000000000000000000000000000000000000000000000000000600052603260045260246000fd5b9060005260206000200160009054906101000a900473ffffffffffffffffffffffffffffffffffffffff1690506000600260008373ffffffffffffffffffffffffffffffffffffffff1673ffffffffffffffffffffffffffffffffffffffff1681526020019081526020016000208190555050808061055690610e20565b91505061048f565b50600067ffffffffffffffff8111156105a0577f4e487b7100000000000000000000000000000000000000000000000000000000600052604160045260246000fd5b6040519080825280602002602001820160405280156105ce5781602001602082028036833780820191505090505b50600190805190602001906105e492919061087c565b5050565b6060600180548060200260200160405190810160405280929190818152602001828054801561066c57602002820191906000526020600020905b8160009054906101000a900473ffffffffffffffffffffffffffffffffffffffff1673ffffffffffffffffffffffffffffffffffffffff1681526020019060010190808311610622575b5050505050905090565b60035481565b662386f26fc1000034116106c5576040517f08c379a00000000000000000000000000000000000000000000000000000000081526004016106bc90610c65565b60405180910390fd5b6000600260003373ffffffffffffffffffffffffffffffffffffffff1673ffffffffffffffffffffffffffffffffffffffff168152602001908152602001600020541415610726576003600081548092919061072090610e20565b91905055505b34600260003373ffffffffffffffffffffffffffffffffffffffff1673ffffffffffffffffffffffffffffffffffffffff16815260200190815260200160002060008282546107759190610d42565b925050819055506001339080600181540180825580915050600190039060005260206000200160009091909190916101000a81548173ffffffffffffffffffffffffffffffffffffffff021916908373ffffffffffffffffffffffffffffffffffffffff160217905550565b600181815481106107f157600080fd5b906000526020600020016000915054906101000a900473ffffffffffffffffffffffffffffffffffffffff1681565b600460009054906101000a900473ffffffffffffffffffffffffffffffffffffffff1681565b60004460014260405160200161085e93929190610bb4565b6040516020818303038152906040528051906020012060001c905090565b8280548282559060005260206000209081019282156108f5579160200282015b828111156108f45782518260006101000a81548173ffffffffffffffffffffffffffffffffffffffff021916908373ffffffffffffffffffffffffffffffffffffffff1602179055509160200191906001019061089c565b5b5090506109029190610906565b5090565b5b8082111561091f576000816000905550600101610907565b5090565b60008135905061093281610f22565b92915050565b60008135905061094781610f39565b92915050565b60006020828403121561095f57600080fd5b600061096d84828501610923565b91505092915050565b60006020828403121561098857600080fd5b600061099684828501610938565b91505092915050565b60006109ab83836109cf565b60208301905092915050565b60006109c383836109ed565b60208301905092915050565b6109d881610dca565b82525050565b6109e781610dca565b82525050565b6109f681610dca565b82525050565b610a0581610db8565b82525050565b6000610a1682610ce5565b610a208185610d15565b9350610a2b83610cc0565b8060005b83811015610a5c578151610a43888261099f565b9750610a4e83610cfb565b925050600181019050610a2f565b5085935050505092915050565b6000610a7482610cf0565b610a7e8185610d26565b9350610a8983610cd0565b8060005b83811015610ac157610a9e82610f02565b610aa888826109b7565b9750610ab383610d08565b925050600181019050610a8d565b5085935050505092915050565b6000610adb601f83610d31565b91507f4d696e696d756d206e756d626572206f6620706c617965727320697320332e006000830152602082019050919050565b6000610b1b601f83610d31565b91507f4d7573742073656e64206d6f7265207468616e20302e30312045746865722e006000830152602082019050919050565b6000610b5b601883610d31565b91507f596f7520617265206e6f7420746865206d616e616765722e00000000000000006000830152602082019050919050565b610b9781610dfc565b82525050565b610bae610ba982610dfc565b610e69565b82525050565b6000610bc08286610b9d565b602082019150610bd08285610a69565b9150610bdc8284610b9d565b602082019150819050949350505050565b6000602082019050610c0260008301846109fc565b92915050565b6000602082019050610c1d60008301846109de565b92915050565b60006020820190508181036000830152610c3d8184610a0b565b905092915050565b60006020820190508181036000830152610c5e81610ace565b9050919050565b60006020820190508181036000830152610c7e81610b0e565b9050919050565b60006020820190508181036000830152610c9e81610b4e565b9050919050565b6000602082019050610cba6000830184610b8e565b92915050565b6000819050602082019050919050565b60008190508160005260206000209050919050565b600081519050919050565b600081549050919050565b6000602082019050919050565b6000600182019050919050565b600082825260208201905092915050565b600081905092915050565b600082825260208201905092915050565b6000610d4d82610dfc565b9150610d5883610dfc565b9250827fffffffffffffffffffffffffffffffffffffffffffffffffffffffffffffffff03821115610d8d57610d8c610ea4565b5b828201905092915050565b600073ffffffffffffffffffffffffffffffffffffffff82169050919050565b6000610dc382610ddc565b9050919050565b6000610dd582610ddc565b9050919050565b600073ffffffffffffffffffffffffffffffffffffffff82169050919050565b6000819050919050565b6000610e19610e1483610f15565b610d98565b9050919050565b6000610e2b82610dfc565b91507fffffffffffffffffffffffffffffffffffffffffffffffffffffffffffffffff821415610e5e57610e5d610ea4565b5b600182019050919050565b6000819050919050565b6000610e7e82610dfc565b9150610e8983610dfc565b925082610e9957610e98610ed3565b5b828206905092915050565b7f4e487b7100000000000000000000000000000000000000000000000000000000600052601160045260246000fd5b7f4e487b7100000000000000000000000000000000000000000000000000000000600052601260045260246000fd5b6000610f0e8254610e06565b9050919050565b60008160001c9050919050565b610f2b81610db8565b8114610f3657600080fd5b50565b610f4281610dfc565b8114610f4d57600080fd5b5056fea264697066735822122025689e4315152ef34cd2e2497dcf6794852639083fd64860fc2619801dfda4b764736f6c63430008000033",
  "immutableReferences": {},
  "source": "//SPDX-License-Identifier: GPL-3.0\r\n\r\npragma solidity ^0.8.0;\r\n\r\ncontract Lottery {\r\n    address public manager;\r\n    address payable[] public players;\r\n    mapping(address => uint256) public uniquePlayers;\r\n    uint256 public noOfPlayers;\r\n    address public lastWinner;\r\n\r\n    constructor() {\r\n        manager = msg.sender;\r\n    }\r\n\r\n    modifier restricted() {\r\n        require(msg.sender == manager, \"You are not the manager.\");\r\n        _;\r\n    }\r\n\r\n    function enter() public payable {\r\n        require(msg.value > 0.01 ether, \"Must send more than 0.01 Ether.\");\r\n        if (uniquePlayers[msg.sender] == 0) {\r\n            noOfPlayers++;\r\n        }\r\n        uniquePlayers[msg.sender] += msg.value;\r\n        players.push(payable(msg.sender));\r\n    }\r\n\r\n    function random() internal view returns (uint256) {\r\n        return\r\n            uint256(\r\n                keccak256(\r\n                    abi.encodePacked(block.difficulty, players, block.timestamp)\r\n                )\r\n            );\r\n    }\r\n\r\n    function pickWinner() public restricted {\r\n        require(players.length >= 3, \"Minimum number of players is 3.\");\r\n        uint256 index = random() % players.length;\r\n        lastWinner = players[index];\r\n        players[index].transfer(address(this).balance);\r\n        noOfPlayers = 0;\r\n        for (uint256 i = 0; i < players.length; i++) {\r\n            address funder = players[i];\r\n            uniquePlayers[funder] = 0;\r\n        }\r\n        players = new address payable[](0);\r\n    }\r\n\r\n    function getPlayers() public view returns (address payable[] memory) {\r\n        return players;\r\n    }\r\n\r\n    function getBalance() public view returns (uint256) {\r\n        return address(this).balance;\r\n    }\r\n}\r\n",
  "sourcePath": "C:/Users/zrinc/Projects/Lottery_dapp/src/contracts/lottery.sol",
  "compiler": {
    "name": "solc",
    "version": "0.8.0+commit.c7dfd78e.Emscripten.clang"
  },
  "schemaVersion": "3.4.1",
  "updatedAt": "2021-12-02T22:49:39.604Z",
  "networkType": "ethereum",
  "devdoc": {
    "kind": "dev",
    "methods": {},
    "version": 1
  },
  "userdoc": {
    "kind": "user",
    "methods": {},
    "version": 1
  }
}